:020000040000FA
:0410000029EF08F0DC
:101008001882D9CF01F0DACF02F0F2B0F2909EAA9E
:1010180016D00C0E1024D96E060E1120DA6EAECF43
:10102800DFFF104A112A89820D0EAE18D8A407D006
:10103800010E176E000E116E000E106E898202C02E
:10104800DAFF01C0D9FF18921100BEEF08F000477F
:101058006F6F64206E696768740A000A4177616B74
:10106800650A000007C003F008C004F09DEC08F012
:1010780003C00DF004C00EF0000E0C6E000E0B6ED7
:101088001AD00B500724096E0C5008200A6E09C0AC
:10109800F6FF0AC0F7FFF86A070EF76403D00800E6
:1010A800F55005D0F6CFE9FFF7CFEAFFEF5009EC8E
:1010B80009F00B4A0C2A0D500B5C0C50800A096E83
:1010C8000E50800A0958D8B01200DBD7D5EC08F0CA
:1010D80092929294929694929494EBEC08F0820EE9
:1010E8000F6EDE0EE82EFED70F2EFCD7570E076EBA
:1010F800100E086E36EC08F0FDEC08F01750D8B466
:10110800FDD7EBEC08F0820E0F6EDE0EE82EFED750
:101118000F2EFCD70C0E076E060E086E36EC08F084
:10112800630E076E100E086E36EC08F0000E176E90
:10113800E3D703C005F004C006F002D0034A042A2E
:1011480003C0F6FF04C0F7FFF86A070EF76403D080
:101158000800F55005D0F6CFE9FFF7CFEAFFEF50CA
:101168000009D8A4EBD70550035C036E0650045859
:10117800046E120006EE0CF011EEF4F0EE6AE55083
:10118800E150FCE1E250FAE100EE10F0080EEE6AE0
:10119800E806FDE118901892000EF86E00016AEF5B
:1011A80008F0000E0F015D6F000E5C6F000E5B6FA4
:1011B800000E896E000E8A6E000E8B6E700ED36E56
:1011C800900ED26E800E9B6E000EB56E1200AC981B
:1011D800AB8EAC84B896190EAF6E948C948EF29E3A
:1011E800D08E9D8A9F8AAB889E9A9E98AC8AF28EF2
:1011F8001200818A938A0F015C9BF29ED08EF28640
:10120800F180868AF290F28E1200036EACA2FED7AD
:0A12180003C0ADFF000E146E1200BB
:020000040020DA
:08000000FFFFFFFFFFFFFFFF00
:020000040030CA
:0E00000000255F3FFFD385FF0FC00FE00F40CC
:00000001FF
