:020000040000FA
:041000004DEF08F0B8
:101008003882E9CF12F0EACF13F0D9CF14F0DACF53
:1010180015F0F6CF16F0F7CF17F0F8CF18F0F5CF98
:1010280019F09EAA24D03450D8A489820C0E3024FA
:10103800D96E060E3120DA6EAECFDFFF304A312A84
:101048003750D8B414D00C0E0C6E060E0D6E32C08C
:101058000EF033C00FF009EC0BF00C500D10D8B4A3
:1010680006D0010E356E000E316E000E306E19C0BE
:10107800F5FF18C0F8FF17C0F7FF16C0F6FF15C038
:10108800DAFF14C0D9FF13C0EAFF12C0E9FF389293
:06109800110007EF0CF04F
:101100000047656E6572616C204B656E6F62690A9F
:10111000007665656C207465207765726D0A0068DD
:10112000656C6C6F207468657265005265626F6FE4
:1011300074696E670068616C6C6F0A0053532C43CE
:10114000300D00424C45657000522C310D00746525
:101150006D700024242400532D2C00434D44004185
:0D1160004F4B0068657900213D007C0000C8
:10116E001EC028F01FC029F022502310D8B4120040
:10117E0028C0D9FF29C0DAFF20C0DFFF2250282463
:10118E00246E23502920256EFF0E2424D96EFF0EC7
:10119E002520DA6E20C0DFFF235004E1030E225C0F
:1011AE00D8A0120020EE01F02850D9262950DA22BC
:1011BE0020C0DFFF20EE02F02850D9262950DA2277
:1011CE0020C0DFFF22502824246E23502920256EB4
:1011DE00FE0E2424D96EFF0E2520DA6E20C0DFFF0E
:1011EE0022502824246E23502920256EFD0E2424FF
:1011FE00D96EFF0E2520DA6E20C0DFFF235004E1EA
:10120E00070E225CD8A0120020EE03F02850D9263B
:10121E002950DA2220C0DFFF22502824246E2350CA
:10122E002920256EFC0E2424D96EFF0E2520DA6EA1
:10123E0020C0DFFF235004E1090E225CD8A012006B
:10124E0028C024F029C025F0241E251E244A252A54
:10125E00030E2414266E276A26502826275029228C
:10126E002650225E2750235AFC0E2216FF0E2316FE
:10127E000BD028C0D9FF29C0DAFF20C0DFFF22061D
:10128E00D8A02306284A292A22502310D8B41200A7
:10129E00F0D7530E1E6E110E1F6E91EC0BF05B0EFF
:1012AE00326E110E336E2AD082A002D0010E01D002
:1012BE00000E3618D8B422D03450D8B41FD00C0E2D
:1012CE001E6E060E1F6E91EC0BF0670E1E6E110E4B
:1012DE001F6E91EC0BF032C01EF033C01FF091EC7C
:1012EE000BF06A0E1E6E110E1F6E91EC0BF0820E3D
:1012FE00286EDE0EE82EFED7282EFCD73550D8B439
:10130E00D3D73C0E1E6E110E1F6E91EC0BF05F0EBE
:10131E00326E110E336E3550D8B4FDD7570E1E6E89
:10132E00110E1F6E91EC0BF026C01EF027C01FF0A1
:10133E0091EC0BF0410E1E6E110E1F6E91EC0BF028
:10134E005F0E326E110E336E3550D8B4FDD7490E86
:10135E001E6E110E1F6E91EC0BF02B0E326E110ED7
:10136E00336E3550D8B4FDD7010E12000C0E256E1B
:10137E00060E266E630E276E110E286EBFEC0AF057
:10138E0025502610D8B423D0350E1E6E110E1F6EAA
:10139E0091EC0BF00C0E1E6E060E1F6E000E216EE3
:1013AE00000E206E0C0E1A6E060E1B6EC5EC0BF0A8
:1013BE001AC022F01BC023F0B7EC08F0000E316EFD
:1013CE00000E306E000E2C6E010E2B6E12000C0EE7
:1013DE00256E060E266E1F0E276E110E286EBFECA2
:1013EE000AF025502610D8B407D0010E1E6E110E2D
:1013FE001F6E91EC0BF0CED70C0E256E060E266EE0
:10140E004E0E276E110E286EBFEC0AF025502610D8
:10141E00D8B407D0110E1E6E110E1F6E91EC0BF08C
:10142E00B9D7000E2C6E000E2B6E12001AC021F0D2
:10143E001BC022F01CC023F01DC024F01E06D8A035
:10144E001F061E280FE11F28D8A40CD0000E1B6EFD
:10145E00000E1A6E1200214A222A234A242A1E0640
:10146E00D8A01F0621C0D9FF22C0DAFFDF50D8B4A2
:10147E001CD023C0F6FF24C0F7FF0800F55000096A
:10148E00D8B413D01E501F10D8B40FD021C0D9FF1E
:10149E0022C0DAFFDF50206E23C0F6FF24C0F7FF14
:1014AE000800F5502018D8B4D6D721C0D9FF22C0D5
:1014BE00DAFFDF50206E23C0F6FF24C0F7FF0800CE
:1014CE00F550205C1A6E1B6AD8A01B06120001C0D4
:1014DE0008F002C009F003C00AF004C00BF00506C4
:1014EE00D8A0060605280FE10628D8A40CD0000EB9
:1014FE00026E000E016E1200084A092A0A4A0B2AD1
:10150E000506D8A0060608C0D9FF09C0DAFFDF50CD
:10151E00D8B41CD00AC0F6FF0BC0F7FF0800F55078
:10152E000009D8B413D005500610D8B40FD008C097
:10153E00D9FF09C0DAFFDF50076E0AC0F6FF0BC0F5
:10154E00F7FF0800F5500718D8B4D6D708C0D9FF52
:10155E0009C0DAFFDF50076E0AC0F6FF0BC0F7FFB7
:10156E000800F550075C016E026AD8A00206120050
:10157E0027502810D8B441D027C01AF028C01BF02D
:10158E00C5EC0BF01AC029F01BC02AF02BD025C0D9
:10159E001AF026C01BF027C01CF028C01DF029C071
:1015AE001EF02AC01FF01DEC0AF01A501B10D8A412
:1015BE0005D025C025F026C026F01200010E2524E8
:1015CE001A6E000E26201B6E27C0F6FF28C0F7FFEE
:1015DE000800F5501C6E1D6A27EC0CF01AC025F0A1
:1015EE001BC026F025502610D8B407D025C0D9FF31
:1015FE0026C0DAFFDF50D8A4CAD7000E256E000E23
:10160E00266E12000E500F10D8B441D00EC001F04D
:10161E000FC002F0E6EC0BF001C010F002C011F0AA
:10162E002BD00CC001F00DC002F00EC003F00FC0A5
:10163E0004F010C005F011C006F06EEC0AF0015077
:10164E000210D8A405D00CC00CF00DC00DF0120085
:10165E00010E0C24016E000E0D20026E0EC0F6FF60
:10166E000FC0F7FF0800F550036E046A42EC0CF051
:10167E0001C00CF002C00DF00C500D10D8B407D004
:10168E000CC0D9FF0DC0DAFFDF50D8A4CAD7000EA8
:10169E000C6E000E0D6E1200000E2F6E000E82B03C
:1016AE00010E366E95EC0CF072EC0CF0820E2D6E77
:1016BE00DE0EE82EFED72D2EFCD7010E346E929242
:1016CE0093969398939A9480430E266E110E276EDE
:1016DE0050EC09F02F6E000E376EBDEC09F02B505A
:1016EE002F6E8A8A060E2E6E130E2D6EAE0EE82EFD
:1016FE00FED72D2EFCD72E2EFAD78A9A060E2E6ED8
:10170E00130E2D6EAE0EE82EFED72D2EFCD72E2EDE
:10171E00FAD7E3D71EC01AF01FC01BF0C5EC0BF0B2
:10172E001AC024F01BC025F0000E236E000E226E90
:10173E001AD022501E24206E23501F20216E20C04E
:10174E00F6FF21C0F7FFF86A070EF76403D0080012
:10175E00F55005D0F6CFE9FFF7CFEAFFEF508DEC4D
:10176E000CF0224A232A2450225C2350800A206E39
:10177E002550800A2058D8B01200DBD71AC01CF0B2
:10178E001BC01DF002D01A4A1B2A1AC0F6FF1BC03E
:10179E00F7FFF86A070EF76403D00800F55005D07E
:1017AE00F6CFE9FFF7CFEAFFEF500009D8A4EBD749
:1017BE001C501A5C1A6E1D501B581B6E120001C075
:1017CE0003F002C004F002D0014A022A01C0F6FF63
:1017DE0002C0F7FFF86A070EF76403D00800F55051
:1017EE0005D0F6CFE9FFF7CFEAFFEF500009D8A4F6
:1017FE00EBD70350015C016E04500258026E1200CA
:10180E00340EF66E190EF76E000EF86E0900F5CF57
:10181E0037F006EE0CF011EEF4F0EE6AE550E15002
:10182E00FCE1E250FAE1356A346A336A326A316AAF
:10183E00306A38903892000EF86E000153EF0BF0BC
:10184E001AC0D9FF1BC0DAFF1C50DE18D8A405D071
:10185E001AC01AF01BC01BF012001AC0D9FF1BC011
:10186E00DAFF1A4A1B2ADF50D8A4EAD7000E1A6EE6
:10187E00000E1B6E120001C0D9FF02C0DAFF03502A
:10188E00DE18D8A405D001C001F002C002F012008B
:10189E0001C0D9FF02C0DAFF014A022ADF50D8A4E4
:1018AE00EAD7000E016E000E026E1200000E896E57
:1018BE00000E8A6E000E8B6E92689368C70E946E41
:1018CE00000E0F015D6F000E5C6F000E5B6F000E61
:1018DE00856EF18E1200AC98AB8EAC84B896190E54
:1018EE00AF6E948C948EF29ED08E9D8A9F8AAB881A
:1018FE009E9A9E98AC8AF28E1200700ED36E900E47
:10190E00D26E800E9B6E000EB56E12001A6EACA2D9
:10191E00FED71AC0ADFF000E356E12005DEC0CF056
:07192E0084EC0CF012000133
:020000040020DA
:08000000FFFFFFFFFFFFFFFF00
:020000040030CA
:0E00000013285F3CFFD185FF0FC00FE00F40BB
:00000001FF
