:020000040000FA
:041000004DEF08F0B8
:101008004682E1CF12F0E2CF13F0D9CF14F0DACF55
:1010180015F0F6CF16F0F7CF17F0F8CF18F0F5CF98
:1010280019F09EAA24D03B50D8A48982970E372461
:10103800D96E010E3820DA6EAECFDFFF374A382A74
:101048004450D8B414D0970E0C6E010E0D6E39C0F2
:101058000EF03AC00FF0FFEC11F00C500D10D8B4A0
:1010680006D0010E3C6E000E386E000E376E19C0A9
:10107800F5FF18C0F8FF17C0F7FF16C0F6FF15C038
:10108800DAFF14C0D9FF13C0E2FF12C0E1FF469295
:0610980011008DEF12F0C3
:10110000005468652074656D7065726174757265F0
:101110002069732025690D006368616E67654E6103
:101120006D653A6E616D6541434B0D0047656E65B7
:1011300072616C204B656E6F62690A006368616E54
:10114000676549443A494441434B0D006368616E09
:1011500067654E616D653A0068656C6C6F207468F8
:10116000657265006368616E676549443A0052655F
:10117000626F6F74696E670068616C6C6F0A005310
:10118000746172740A0053532C43300D00522C3199
:101190000D00257325640074656D700024242400FF
:1011A000532D2C00434D4400414F4B00686579009E
:1011B000213D007C0000000E0001766F000E776F6D
:1011C000000E786F000E796F28C07AF029C07BF08E
:1011D0007A517B11D8B45AD17AC0D9FF7BC0DAFFDB
:1011E000DF50D8B453D102D07A4B7B2B7AC0D9FFD1
:1011F0007BC0DAFFDF507C6F010E6E6F200E7C1912
:10120000D8B413D0F70E606FFF0E616F7C51626F20
:10121000636B6051622761516323635104E1050EE2
:10122000625DD8A002D0000E6E6F6EC068F0696B70
:1012300068516911D8A4D8D7000E746F000E6F6F73
:10124000000E756F2D0E7C19D8A40BD0010E746F93
:101250007A4B7B2B7AC0D9FF7BC0DAFFDF507C6FE3
:1012600004D02B0E7C19D8B4F3D7300E7C19D8A437
:1012700030D07A4B7B2B7AC0D9FF7BC0DAFFDF50AE
:101280007C6F2C502D10D8B405D0100E2C182D10BA
:10129000D8A415D0780E7C19D8B404D0580E7C1977
:1012A000D8A40DD0000E2D6E100E2C6E7A4B7B2B19
:1012B0007AC0D9FF7BC0DAFFDF507C6F0AD0010E05
:1012C0006F6F2C502D10D8A404D0000E2D6E080E78
:1012D0002C6E2C502D10D8A404D0000E2D6E0A0EAA
:1012E0002C6E2E50D8B414D07451D8A408D0FF0E50
:1012F000706FFF0E716FFF0E726F7F0E07D0000EC2
:10130000706F000E716F000E726F800E736F04D0DD
:10131000706971697269736976C064F077C065F04D
:1013200078C066F079C067F09F0E606FFF0E616F46
:101330007C51626F636B200E6213000E6313605169
:10134000622761516323635106E11A0E625DD8B0D2
:1013500002D0010E01D0000E6A6F6B6B6A516B11E7
:10136000D8B40AD07CC020F0216A7EEC13F0205063
:10137000C90F00017C6F1CD0D00E606FFF0E616F33
:101380007C51626F636B60516227615163236351CB
:1013900006E10A0E625DD8B002D0010E01D0000E47
:1013A0006C6F6D6B6C516D11D8B462D0300E7C5F78
:1013B0007C51606F616B2C50605D6151800A626F7F
:1013C0002D50800A6259D8B053D07551D8A445D059
:1013D0002CC01AF02DC01BF0000E1BBEFF0E1C6EA1
:1013E0001D6E76C01EF077C01FF078C020F079C067
:1013F00021F0FEEC12F000017C511A24766F000EF1
:101400001B20776F000E1C20786F000E1D20796F57
:101410006451765D655177596651785967517959AC
:10142000D8A00DD02E50D8B418D07651705D775119
:1014300071597851725979517359D8B00ED070C022
:1014400076F071C077F072C078F073C079F0000E5A
:10145000306E220E2F6E010E756F7A4B7B2B7AC089
:10146000D9FF7BC0DAFFDF507C6F010E6F6F54D75E
:101470007551D8A40BD07451D8B408D0791F781FF7
:10148000771F766D000E7723782379232A502B104F
:10149000D8B40FD06F51D8A404D028C07AF029C096
:1014A0007BF02AC0D9FF2BC0DAFF7AC0DEFF7BC0F9
:1014B000DDFF76C028F077C029F078C02AF079C027
:1014C0002BF012006CC084F06DC085F06EC086F009
:1014D0006FC087F070C088F071C089F072C08AF068
:1014E00073C08BF000018BAF02D0010E01D0000E53
:1014F000826F836B82518311D8B410D08B1F8A1FE7
:10150000891F881F871F861F851F846D000E8523F6
:1015100086238723882389238A238B2334AE35921D
:1015200034BE05D0345008E13304D8B005D0000EE5
:101530007F6F010E7E6F04D033C07EF034C07FF029
:1015400031C080F032C081F082518311D8A402D022
:1015500035A403D08007D8A08107000E8D6F1F0E21
:101560008C6F000EFF6F7DD08C07D8A08D07E00E2A
:101570008C25D96E000E8D21DA6E84C01AF085C0DC
:101580001BF086C01CF087C01DF088C01EF089C00B
:101590001FF08AC020F08BC021F00A0E226E000ED0
:1015A000236E000E246E000E256E000E266E000EB9
:1015B000276E000E286E000E296E74EC0FF01AC014
:1015C00074F01BC075F01CC076F01DC077F01EC013
:1015D00078F01FC079F020C07AF021C07BF074C091
:1015E0002CF076C02DF070EC14F02C50300FDF6E24
:1015F00000017E07D8A07F078007D8A0810784C09C
:101600001AF085C01BF086C01CF087C01DF088C092
:101610001EF089C01FF08AC020F08BC021F00A0E96
:10162000226E000E236E000E246E000E256E000E3C
:10163000266E000E276E000E286E000E296E9DECA1
:101640000DF01AC084F01BC085F01CC086F01DC0D0
:1016500087F01EC088F01FC089F020C08AF021C02A
:101660008BF000018DBF1FD08D5103E18C05D8A0F8
:101670001AD08451851186118711881189118A1118
:101680008B11D8A471D77FBF05D07F5102E17E05B1
:10169000D8B06AD781BF07D0815103E18005D8A0B7
:1016A00002D035B261D782518311D8A402D035A4BB
:1016B00017D08C07D8A08D0782518311D8A404D0ED
:1016C000000E7D6F2B0E03D0000E7D6F2D0E7C6FF4
:1016D000E00E8C25D96E000E8D21DA6E7CC0DFFF06
:1016E0006AC060F06BC061F0E00E8C25626F000E86
:1016F0008D21636F80C064F081C065F068EC11F0EB
:1017000060C06AF061C06BF01200970E256E010E8A
:10171000266EAC0E276E110E286EB5EC11F025501A
:101720002610D8B424D0780E1E6E110E1F6ECAEC8F
:1017300012F0970E1E6E010E1F6E000E216E000E2F
:10174000206E970E1A6E010E1B6EA3EC13F01AC0DA
:1017500022F01BC023F0DBEC0EF0000E386E000E02
:10176000376E000E0001A96F010EA86F1200970ED0
:10177000256E010E266E580E276E110E286EB5ECE2
:1017800011F025502610D8B407D02C0E1E6E110E65
:101790001F6ECAEC12F0CDD7970E256E010E266E85
:1017A000970E276E110E286EB5EC11F025502610FD
:1017B000D8B416D0780E0101006F010E016F010E32
:1017C000026F110E036F000E056F190E046F54ECBB
:1017D00013F0780E1E6E010E1F6ECAEC12F0A9D720
:1017E000970E256E010E266E640E276E110E286E62
:1017F000B5EC11F025502610D8B440D0970E256EC8
:10180000010E266E640E276E110E286EB5EC11F0D7
:1018100025C012F126C013F1640E1A6E110E1B6E54
:10182000A3EC13F01A50010112258E6F1B501321E7
:101830008F6F8EC17DF08FC17EF0920E00017F6FA1
:10184000010E806F000E826F0A0E816FA3EC14F000
:101850007DC0DEF07EC0DFF0140E0101006F010ECE
:10186000016F3C0E026F110E036F54EC13F0140E57
:101870001E6E010E1F6ECAEC12F05BD7970E256E1E
:10188000010E266E4C0E276E110E286EB5EC11F06F
:1018900025502610D8B451D0970E256E010E266E15
:1018A0004C0E276E110E286EB5EC11F025C012F10A
:1018B00026C013F14C0E1A6E110E1B6EA3EC13F022
:1018C0001A5001011225906F1B501321916FAA0E1F
:1018D000006F000E016F920E026F110E036F90C128
:1018E00004F191C105F1DEC006F1DFC007F154EC4F
:1018F00013F0460E0101006F010E016F180E026F0A
:10190000110E036F54EC13F0460E1E6E010E1F6E87
:10191000CAEC12F0030E0101136F080E126F770E5E
:10192000E82EFED7122FFCD7132FFAD7AA0E266E59
:10193000000E276E06EC10F014D7000E0001A96F00
:10194000000EA86F120090C0D9FF91C0DAFFDECF61
:10195000F6FFDDCFF7FF0800F550250AD8A4D3D055
:1019600090C0D9FF91C0DAFFDE2A000EDD22000E02
:10197000326E000E316E31C035F032C036F0336851
:10198000346890C0D9FF91C0DAFFDECFF6FFDDCF1B
:10199000F7FF0800F550640AD8B40DD090C0D9FF05
:1019A00091C0DAFFDECFF6FFDDCFF7FF0800F5507C
:1019B000690AD8A440D090C0D9FF91C0DAFFDE2ACE
:1019C000000EDD2292C0D9FF93C0DAFFDFCF94F082
:1019D000020EDE26DFCF95F0000EDD2294C0D9FF87
:1019E00095C0DAFFDECF96F0DDCF97F00001000E54
:1019F00097BFFF0E986F996F9A6F9B6F9C6F9D6F4B
:101A00008EC06AF08FC06BF096C06CF097C06DF01E
:101A100098C06EF099C06FF09AC070F09BC071F0E2
:101A20009CC072F09DC073F062EC0AF06AC08EF048
:101A30006BC08FF0120090C0D9FF91C0DAFFDECFEB
:101A4000F6FFDDCFF7FF0800F550730AD8A42AD0BF
:101A500090C0D9FF91C0DAFFDE2A000EDD2292C0CD
:101A6000D9FF93C0DAFFDFCF94F0020EDE26DFCF7E
:101A700095F0000EDD2294C0D9FF95C0DAFFDECFCD
:101A80009EF0DDCF9FF08EC023F08FC024F09EC06B
:101A900025F09FC026F042EC0EF023C08EF024C04B
:101AA0008FF0120090C0D9FF91C0DAFFDECFF6FFB1
:101AB000DDCFF7FF0800F550250AD8A417D090C055
:101AC000D9FF91C0DAFFDE2A000EDD22000E1B6E68
:101AD000250E1A6E8EC01CF08FC01DF018EC11F090
:101AE000000E00018F6F010E8E6F120090C0D9FFA3
:101AF00091C0DAFFDE2A000EDD22000E00018F6F9A
:101B0000000E8E6F120090C0D9FF91C0DAFFDECFB9
:101B1000F6FFDDCFF7FF0800F5501A6E1B6A8EC086
:101B20001CF08FC01DF018EC11F090C0D9FF91C0CF
:101B3000DAFFDE2A000EDD22D3D7000E0001616F2E
:101B400029AE12D0291E281E271E261E251E241E41
:101B5000231E226C000E2322242225222622272245
:101B600028222922010E616F21AE12D0211E201ED3
:101B70001F1E1E1E1D1E1C1E1B1E1A6C000E1B226D
:101B80001C221D221E221F2220222122010E611B47
:101B900020EE62F0070EDE6AE806FDE22250231016
:101BA000241025102610271028102910D8B446D04C
:101BB000010E606F0AD0D89022362336243625369F
:101BC0002636273628362936602B29AEF4D7D8900A
:101BD0006237633764376537663767376837693721
:101BE00022501A5C23501B5824501C5825501D5855
:101BF00026501E5827501F58285020582950215829
:101C0000D8A011D022501A5E23501B5A24501C5ABF
:101C100025501D5A26501E5A27501F5A2850205A08
:101C20002950215A6281D89029322832273226320F
:101C30002532243223322232602FC9D76151D8B4E1
:101C400010D0691F681F671F661F651F641F631F11
:101C5000626D000E63236423652366236723682374
:101C6000692362C01AF063C01BF064C01CF065C039
:101C70001DF066C01EF067C01FF068C020F069C08C
:101C800021F0120020EE3DF010EE60F0060EDBCFEA
:101C9000E3FFE806FCE225C06BF026C06CF0000113
:101CA0006B516C11D8A404D0600E6B6F000E6C6F7A
:101CB0006BC01AF06CC01BF0A3EC13F01AC06FF0ED
:101CC0001BC070F033C06DF034C06EF000016EBF09
:101CD0000ED06F516D5D6E51800A276E7051800A73
:101CE0002758D8B004D06DC06FF06EC070F06FC0D0
:101CF0006DF070C06EF031C069F032C06AF035A08E
:101D00000ED017D0000E1B6E200E1A6E23C01CF0D2
:101D100024C01DF018EC11F000016F4B702B6951BD
:101D20006F5D7051800A276E6A51800A2758D8A0CB
:101D3000E9D7000E686F000E676F14D06BC0D9FF33
:101D40006CC0DAFFDF50276E27501A6E1B6A23C063
:101D50001CF024C01DF018EC11F000016B4B6C2B33
:101D6000674B682B6D51675D6851800A276E6E5115
:101D7000800A2758D8A0E2D735B00ED017D0000E71
:101D80001B6E200E1A6E23C01CF024C01DF018EC30
:101D900011F000016F4B702B69516F5D7051800A1B
:101DA000276E6A51800A2758D8A0E9D76FC023F060
:101DB00070C024F012001EC028F01FC029F022506D
:101DC0002310D8B4120028C0D9FF29C0DAFF20C0E0
:101DD000DFFF22502824246E23502920256EFF0E79
:101DE0002424D96EFF0E2520DA6E20C0DFFF235099
:101DF00004E1030E225CD8A0120020EE01F028506E
:101E0000D9262950DA2220C0DFFF20EE02F0285028
:101E1000D9262950DA2220C0DFFF22502824246E40
:101E200023502920256EFE0E2424D96EFF0E252076
:101E3000DA6E20C0DFFF22502824246E2350292090
:101E4000256EFD0E2424D96EFF0E2520DA6E20C0EB
:101E5000DFFF235004E1070E225CD8A0120020EE21
:101E600003F02850D9262950DA2220C0DFFF225063
:101E70002824246E23502920256EFC0E2424D96E9C
:101E8000FF0E2520DA6E20C0DFFF235004E1090E8B
:101E9000225CD8A0120028C024F029C025F0241EFE
:101EA000251E244A252A030E2414266E276A26504E
:101EB0002826275029222650225E2750235AFC0E1E
:101EC0002216FF0E23160BD028C0D9FF29C0DAFF37
:101ED00020C0DFFF2206D8A02306284A292A225044
:101EE0002310D8B41200F0D7000E2B6E21AE12D002
:101EF000211E201E1F1E1E1E1D1E1C1E1B1E1A6CB8
:101F0000000E1B221C221D221E221F222022212203
:101F1000010E2B6E29AE10D0291E281E271E261E4C
:101F2000251E241E231E226C000E2322242225227D
:101F3000262227222822292222502310241025106D
:101F40002610271028102910D8B43CD0010E2A6E74
:101F50000AD0D89022362336243625362636273620
:101F6000283629362A2A29AEF4D722501A5C235063
:101F70001B5824501C5825501D5826501E582750B9
:101F80001F582850205829502158D8A010D022502E
:101F90001A5E23501B5A24501C5A25501D5A265095
:101FA0001E5A27501F5A2850205A2950215AD8907B
:101FB0002932283227322632253224322332223265
:101FC0002A2ED3D72B50D8B410D0211E201E1F1E6E
:101FD0001E1E1D1E1C1E1B1E1A6C000E1B221C2208
:101FE0001D221E221F22202221221AC01AF01BC0ED
:101FF0001BF01CC01CF01DC01DF01EC01EF01FC039
:102000001FF020C020F021C021F01200010E446E0C
:102010009C0E1E6E110E1F6ECAEC12F0A40E396ECD
:10202000110E3A6E2AD082A002D0010E01D0000E0D
:102030004518D8B422D03B50D8B41FD0970E1E6E8E
:10204000010E1F6ECAEC12F0B00E1E6E110E1F6E46
:10205000CAEC12F039C01EF03AC01FF0CAEC12F000
:10206000B30E1E6E110E1F6ECAEC12F0820E286E99
:10207000DE0EE82EFED7282EFCD73C50D8B4D3D79E
:10208000860E1E6E110E1F6ECAEC12F0A80E396E6F
:10209000110E3A6E3C50D8B4FDD7A00E1E6E110E34
:1020A0001F6ECAEC12F026C01EF027C01FF0CAEC4B
:1020B00012F08B0E1E6E110E1F6ECAEC12F0A80EDF
:1020C000396E110E3A6E3C50D8B4FDD78D0E1E6E8F
:1020D000110E1F6ECAEC12F06E0E396E110E3A6EB2
:1020E0003C50D8B4FDD7000E446E12001AC021F047
:1020F0001BC022F01CC023F01DC024F01E06D8A077
:102100001F061E280FE11F28D8A40CD0000E1B6E3E
:10211000000E1A6E1200214A222A234A242A1E0681
:10212000D8A01F0621C0D9FF22C0DAFFDF50D8B4E3
:102130001CD023C0F6FF24C0F7FF0800F5500009AB
:10214000D8B413D01E501F10D8B40FD021C0D9FF5F
:1021500022C0DAFFDF50206E23C0F6FF24C0F7FF55
:102160000800F5502018D8B4D6D721C0D9FF22C016
:10217000DAFFDF50206E23C0F6FF24C0F7FF08000F
:10218000F550205C1A6E1B6AD8A01B06120001C015
:1021900008F002C009F003C00AF004C00BF0050605
:1021A000D8A0060605280FE10628D8A40CD0000EFA
:1021B000026E000E016E1200084A092A0A4A0B2A12
:1021C0000506D8A0060608C0D9FF09C0DAFFDF500F
:1021D000D8B41CD00AC0F6FF0BC0F7FF0800F550BA
:1021E0000009D8B413D005500610D8B40FD008C0D9
:1021F000D9FF09C0DAFFDF50076E0AC0F6FF0BC037
:10220000F7FF0800F5500718D8B4D6D708C0D9FF93
:1022100009C0DAFFDF50076E0AC0F6FF0BC0F7FFF8
:102220000800F550075C016E026AD8A00206120091
:102230001C501D10D8B404D01C501D10D8A404D0BC
:102240001A502DEC15F0120020EE04F01C50D92687
:102250001D50DA22DE50DE10D8B416D020EE04F085
:102260001C50D9261D50DA2210EE02F01C50E12637
:102270001D50E222DE50E65CE650800A226EDE50FF
:10228000800A2258D8B0120020EE02F01C50D92645
:102290001D50DA22DECF1EF0DDCF1FF01CC0D9FFAB
:1022A0001DC0DAFFDECF20F0DDCF21F01E5020244C
:1022B000D96E1F502120DA6E1AC0DFFF20EE02F027
:1022C0001C50D9261D50DA22DE2A000EDD22120013
:1022D00035A00AD062C023F063C024F060C025F0AE
:1022E00061C026F004EC14F0000165BF05D064C0A5
:1022F0002DF065C02EF004D0000E2E6E000E2D6E57
:10230000000E2C6E000E2B6E0CD0000E1B6E200EDD
:102310001A6E60C01CF061C01DF018EC11F02B4A61
:102320002C2A2D502B5C2C50800A2A6E2E50800AAD
:102330002A58D8A0EAD735B00AD062C023F063C0CB
:1023400024F060C025F061C026F004EC14F062C0F7
:102350001AF063C01BF0A3EC13F02D501A240001F7
:10236000606F2E501B20616F120027502810D8B4C8
:1023700041D027C01AF028C01BF0A3EC13F01AC0FC
:1023800029F01BC02AF02BD025C01AF026C01BF064
:1023900027C01CF028C01DF029C01EF02AC01FF065
:1023A00076EC10F01A501B10D8A405D025C025F0EB
:1023B00026C026F01200010E25241A6E000E2620DB
:1023C0001B6E27C0F6FF28C0F7FF0800F5501C6EF3
:1023D0001D6A20EC14F01AC025F01BC026F0255011
:1023E0002610D8B407D025C0D9FF26C0DAFFDF50A9
:1023F000D8A4CAD7000E256E000E266E12000E500D
:102400000F10D8B441D00EC001F00FC002F0C4ECE0
:1024100013F001C010F002C011F02BD00CC001F07D
:102420000DC002F00EC003F00FC004F010C005F0A4
:1024300011C006F0C7EC10F001500210D8A405D06E
:102440000CC00CF00DC00DF01200010E0C24016E3A
:10245000000E0D20026E0EC0F6FF0FC0F7FF080041
:10246000F550036E046A3BEC14F001C00CF002C09E
:102470000DF00C500D10D8B407D00CC0D9FF0DC012
:10248000DAFFDF50D8A4CAD7000E0C6E000E0D6E16
:102490001200000E0101966F000E82B0010E456E13
:1024A00024EC15F001EC15F0820E0101946FDD0EA5
:1024B000E82EFED7942FFCD700D0010E3B6E9292EF
:1024C00093969398939A94807F0E1E6E110E1F6EB2
:1024D000CAEC12F085EC0BF00001A8510101966FD7
:1024E0008A8A060E0101956F130E946FAD0EE82EC9
:1024F000FED7942FFCD7952FFAD700D08A9A060ED4
:102500000101956F130E946FAD0EE82EFED7942F38
:10251000FCD7952FFAD700D0DDD7140EF66E290E12
:10252000F76E000EF86E00EEAAF010EE32F0090021
:10253000F5CFEEFFE550E150FAE1520EF66E2A0EAD
:10254000F76E000EF86E00EE3DF010EE08F0090098
:10255000F5CFEEFFE550E150FAE101EE97F011EE14
:10256000F4F0EE6AE550E150FCE1E250FAE100EEF1
:10257000DCF0240EEE6AE806FDE100EE2FF00E0E10
:10258000EE6AE806FDE146904692000EF86E000104
:1025900049EF12F01EC01AF01FC01BF0A3EC13F09D
:1025A0001AC024F01BC025F0000E236E000E226E10
:1025B0001AD022501E24206E23501F20216E20C0CE
:1025C000F6FF21C0F7FFF86A070EF76403D0080092
:1025D000F55005D0F6CFE1FFF7CFE2FFE7501CEC56
:1025E00015F0224A232A2450225C2350800A206EB0
:1025F0002550800A2058D8B01200DBD7000E226E7A
:10260000000E236E000E246E000E256E1AA008D058
:102610001E5022261F5023222050242221502522E2
:10262000D8901E361F3620362136D8901D321C32E7
:102630001B321A321A501B101C101D10D8A4E6D7DA
:1026400022C01AF023C01BF024C01CF025C01DF0CE
:102650001200A2C0A6F0A3C0A7F0000E0001DD6F1B
:10266000000EDC6F13D0A0C08EF0A1C08FF0A60EBC
:10267000906F000E916FA4C092F0A5C093F0A3ECF0
:102680000CF000018E51DC278F51DD23A6C0F6FF30
:10269000A7C0F7FF0800F5500009D8A4E4D7DCC0B4
:1026A000A0F0DDC0A1F01200040E01010A6F010EBE
:1026B0000B6F00C10CF101C10DF1000E0F6F000E88
:1026C0000E6F000E116F000E106F0C0E0001A06F48
:1026D000010EA16F02C1A2F003C1A3F00A0EA46F04
:1026E000010EA56F29EC13F001010E510025D96EE2
:1026F0000F510121DA6E000EDF6E12009F0E226E66
:10270000FF0E236E20C024F021C025F02250242685
:1027100023502522255006E11A0E245CD8B002D0A1
:10272000010E01D0000E266E276A26502710D8B45D
:1027300005D05F0E2014206E216A120020C020F008
:1027400021C021F012001AC01CF01BC01DF002D0E5
:102750001A4A1B2A1AC0F6FF1BC0F7FFF86A070EB9
:10276000F76403D00800F55005D0F6CFE1FFF7CFAE
:10277000E2FFE7500009D8A4EBD71C501A5C1A6E90
:102780001D501B581B6E120001C003F002C004F064
:1027900002D0014A022A01C0F6FF02C0F7FFF86A20
:1027A000070EF76403D00800F55005D0F6CFE1FF1F
:1027B000F7CFE2FFE7500009D8A4EBD70350015C44
:1027C000016E04500258026E1200010E206E200E9F
:1027D0001A181B10D8B414D0F70E1C6EFF0E1D6E05
:1027E0001AC01EF01BC01FF01C501E261D501F22B9
:1027F0001F5004E1050E1E5CD8A002D0000E206E12
:1028000020C01AF01B6A1200000E296E000E286EFE
:102810000BD027C01AF01B6A25C01CF026C01DF083
:1028200018EC11F0284A292A28502324D96E29505F
:102830002420DA6EDF50276E2750D8B41200E9D773
:102840001AC0D9FF1BC0DAFF1C50DE18D8A405D06F
:102850001AC01AF01BC01BF012001AC0D9FF1BC00F
:10286000DAFF1A4A1B2ADF50D8A4EAD7000E1A6EE4
:10287000000E1B6E120001C0D9FF02C0DAFF035028
:10288000DE18D8A405D001C001F002C002F0120089
:1028900001C0D9FF02C0DAFF014A022ADF50D8A4E2
:1028A000EAD7000E016E000E026E12009F0E1C6E23
:1028B000FF0E1D6E200E1A101E6E000E1B101F6ED6
:1028C0001C501E261D501F221F5006E11A0E1E5CB2
:1028D000D8B002D0010E01D0000E1A6E1B6A120091
:1028E0002DBE05D02D5011E12C04D8B00ED02CC037
:1028F00060F02DC061F00001601F611F604B612B13
:1029000060C02CF061C02DF012002CC02CF02DC046
:102910002DF0120053454E534F52000000000000AE
:1029200000000000000000000000000000000000A7
:102930000000000000000000000000000000000097
:102940000000000000007DC028F07EC029F07FC09C
:102950002AF080C02BF081C02CF082C02DF0010E37
:102960002E6EDBEC08F028C07DF029C07EF02AC076
:102970007FF02BC080F012009F0E1C6EFF0E1D6EAC
:102980001AC01EF01BC01FF01C501E261D501F2217
:102990001F5006E11A0E1E5CD8B002D0010E01D005
:1029A000000E1A6E1B6A1200D00E1C6EFF0E1D6EFA
:1029B0001AC01EF01BC01FF01C501E261D501F22E7
:1029C0001F5006E10A0E1E5CD8B002D0010E01D0E5
:1029D000000E1A6E1B6A1200000E896E000E8A6EBF
:1029E000000E8B6E92689368C70E946E000E0F01F6
:1029F0005D6F000E5C6F000E5B6F000E856EF18EDA
:102A00001200AC98AB8EAC84B896190EAF6E948C55
:102A1000948EF29ED08E9D8A9F8AAB889E9A9E98B5
:102A2000AC8AF28E1200700ED36E900ED26E800EB3
:102A30009B6E000EB56E12001A6EACA2FED71AC0C5
:102A4000ADFF000E3C6E1200ECEC14F013EC15F030
:0C2A50001200286E756C6C290001120049
:020000040020DA
:08000000FFFFFFFFFFFFFFFF00
:020000040030CA
:0E00000013285F3CFFD185FF0FC00FE00F40BB
:00000001FF
