:020000040000FA
:0400000024EF00F0F9
:100008005D82D9CF01F0DACF02F09EA603D0010EAF
:100018005B6E9E969EAA0ED00001A751D8A4898235
:10002800B60EA325D96E010EA421DA6EAECFDFFF7E
:10003800A34BA42B02C0DAFF01C0D9FF5D921100C7
:0400480057EF0FF06F
:10080000006368616E67654E616D653A6E616D6526
:1008100041434B0D0047656E6572616C204B656E00
:100820006F62690A006368616E676549443A4944CA
:1008300041434B0D006368616E67654E616D653ABB
:100840000068656C6C6F2074686572650063686130
:100850006E676549443A005265626F6F74696E67EE
:100860000074656D7041434B0067657454656D702D
:100870000053746172740A0053532C43300D0025E9
:10088000643A25690D0068656C6C6F0D00522C315F
:100890000D00257325640024242400532D2C0043CF
:1008A0004D4400414F4B006865790000000E2E6EEC
:1008B000000E2F6E000E306E000E316E11C032F041
:1008C00012C033F032503310D8B459D132C0D9FFEE
:1008D00033C0DAFFDF50D8B452D102D0324A332AC3
:1008E00032C0D9FF33C0DAFFDF50346E010E266EFE
:1008F000200E3418D8B413D0F70E186EFF0E196EF0
:1009000034501A6E1B6A18501A2619501B221B509D
:1009100004E1050E1A5CD8A002D0000E266E26C097
:1009200020F0216A20502110D8A4D8D7000E2C6EB8
:10093000000E276E000E2D6E2D0E3418D8A40BD08D
:10094000010E2C6E324A332A32C0D9FF33C0DAFF8F
:10095000DF50346E04D02B0E3418D8B4F3D7300ED9
:100960003418D8A430D0324A332A32C0D9FF33C029
:10097000DAFFDF50346E15501610D8B405D0100EC3
:1009800015181610D8A415D0780E3418D8B404D081
:10099000580E3418D8A40DD0000E166E100E156E19
:1009A000324A332A32C0D9FF33C0DAFFDF50346E07
:1009B0000AD0010E276E15501610D8A404D0000ED0
:1009C000166E080E156E15501610D8A404D0000E21
:1009D000166E0A0E156E1750D8B414D02C50D8A429
:1009E00008D0FF0E286EFF0E296EFF0E2A6E7F0EB6
:1009F00007D0000E286E000E296E000E2A6E800EA3
:100A00002B6E04D0286829682A682B682EC01CF039
:100A10002FC01DF030C01EF031C01FF09F0E186EA9
:100A2000FF0E196E34501A6E1B6A200E1A12000E39
:100A30001B1218501A2619501B221B5006E11A0EC1
:100A40001A5CD8B002D0010E01D0000E226E236ACB
:100A500022502310D8B409D034C009F00A6AD1EC6E
:100A60000FF00950C90F346E1CD0D00E186EFF0E57
:100A7000196E34501A6E1B6A18501A2619501B2210
:100A80001B5006E10A0E1A5CD8B002D0010E01D04C
:100A9000000E246E256A24502510D8B462D0300E82
:100AA000345E3450186E196A1550185C1950800A5B
:100AB0001A6E1650800A1A58D8B053D02D50D8A4A8
:100AC00045D015C003F016C004F0000E04BEFF0EA2
:100AD000056E066E2EC007F02FC008F030C009F07A
:100AE00031C00AF001EC0FF0345003242E6E000EDA
:100AF00004202F6E000E0520306E000E0620316E91
:100B00001C502E5C1D502F581E5030581F5031580D
:100B1000D8A00DD01750D8B419D02E50285C2F5023
:100B2000295830502A5831502B58D8B00FD028C0EF
:100B30002EF029C02FF02AC030F02BC031F0000E6B
:100B400000019A6F220E996F010E2D6E324A332AE0
:100B500032C0D9FF33C0DAFFDF50346E010E276E8A
:100B600055D72D50D8A40BD02C50D8B408D0311E56
:100B7000301E2F1E2E6C000E2F22302231221350D9
:100B80001410D8B40FD02750D8A404D011C032F01C
:100B900012C033F013C0D9FF14C0DAFF32C0DEFF39
:100BA00033C0DDFF2EC011F02FC012F030C013F0A3
:100BB00031C014F01200B60E0E6E010E0F6EA70EAD
:100BC000106E080E116E18EC0EF00E500F10D8B407
:100BD0002BD0860E076E080E086E9BEC0EF0000EF2
:100BE000076E010E086E9BEC0EF0B60E076E010E3E
:100BF000086E000E0A6E000E096EB60E036E010E30
:100C0000046E1AEC10F003C00BF004C00CF069EC99
:100C10000BF0000E0001A46F000EA36F000E000188
:100C2000DE6F010EDD6F1200B60E0E6E010E0F6E3E
:100C3000410E106E080E116E18EC0EF00E500F10D3
:100C4000D8B407D0150E076E080E086E9BEC0EF098
:100C5000CCD7B60E0E6E010E0F6E690E106E080E1A
:100C6000116E18EC0EF00E500F10D8B46DD0F6ECDB
:100C70000FF00001A86F62EC0EF00DC0B4F10EC0D1
:100C8000B5F1960E0001CB6F010ECC6F7F0ECD6FCC
:100C9000080ECE6FA5C0CFF0A6C0D0F0B4C1D1F081
:100CA000B5C1D2F080EC0FF0960E076E010E086E03
:100CB0009BEC0EF0B60E076E010E086E000E0A6E6B
:100CC000000E096EB60E036E010E046E1AEC10F0E3
:100CD00003C00BF004C00CF069EC0BF0000E000137
:100CE000A46F000EA36F000E0101B06F000EB16F74
:100CF000000EB26F000EB36F18D0010E0101B027C5
:100D0000000EB123B223B323B35108E1F90EB05D55
:100D1000240EB159010EB259D8A007D0960E076E15
:100D2000010E086E9BEC0EF0DED7B60E0E6E010EB5
:100D30000F6E610E106E080E116E18EC0EF00E5054
:100D40000F10D8A452D7D9D7B60E0E6E010E0F6E63
:100D50004D0E106E080E116E18EC0EF00E500F10A6
:100D6000D8B442D0B60E0E6E010E0F6E4D0E106E40
:100D7000080E116E18EC0EF00EC0DFF00FC0E0F0A0
:100D80004D0E036E080E046E1AEC10F003500001B5
:100D9000DF250101AA6F04500001E0210101AB6FC2
:100DA000AAC135F0ABC136F0AE0E376E010E386E0B
:100DB000000E3A6E0A0E396EC8EC10F035C0A5F080
:100DC00036C0A6F0320E0001CB6F010ECC6F250E9F
:100DD000CD6F080ECE6F80EC0FF0320E076E010E55
:100DE000086E9BEC0EF001D7B60E0E6E010E0F6E64
:100DF000350E106E080E116E18EC0EF00E500F101E
:100E0000D8B455D0B60E0E6E010E0F6E350E106EA4
:100E1000080E116E18EC0EF00EC0DFF00FC0E0F0FF
:100E2000350E036E080E046E1AEC10F0035000012C
:100E3000DF250101AC6F04500001E0210101AD6F1D
:100E4000670E0001CB6F000ECC6F920ECD6F080EB7
:100E5000CE6FACC1CFF0ADC1D0F0A5C0D1F0A6C06F
:100E6000D2F080EC0FF0640E0001CB6F010ECC6F5E
:100E7000010ECD6F080ECE6F80EC0FF0640E076E82
:100E8000010E086E9BEC0EF0030E0001E06F080EE1
:100E9000DF6F770EE82EFED7DF2FFCD7E02FFAD7D3
:100EA000670E146E000E156E5DEC07F0B7D6000EDF
:100EB0000001DE6F000EDD6F1200970E076E080E48
:100EC000086E9BEC0EF0000E166E000E176E000EF4
:100ED000186E000E196E17D0010E1626000E17227E
:100EE00018221922195008E1F90E165C240E175821
:100EF000010E1858D8A007D0970E076E080E086E7E
:100F00009BEC0EF0E0D7B60E0E6E010E0F6E9F0E2C
:100F1000106E080E116E18EC0EF00E500F10D8B4B3
:100F2000DBD7B60E076E010E086E000E0A6E000EBD
:100F3000096EB60E036E010E046E1AEC10F003C0BB
:100F40000BF004C00CF069EC0BF0000E0001A46F74
:100F5000000EA36F780E076E080E086E9BEC0EF065
:100F6000000E166E000E176E000E186E000E196E33
:100F700017D0010E1626000E17221822192219501A
:100F800008E1F90E165C240E1758010E1858D8A067
:100F900007D0780E076E080E086E9BEC0EF0E0D7B7
:100FA000B60E0E6E010E0F6EA30E106E080E116EB1
:100FB00018EC0EF00E500F10D8B4DBD7B60E076E3B
:100FC000010E086E000E0A6E000E096EB60E036E5C
:100FD000010E046E1AEC10F003C00BF004C00CF00C
:100FE00069EC0BF0000E0001A46F000EA36F9B0EC6
:100FF000076E080E086E9BEC0EF014C007F015C0CB
:1010000008F09BEC0EF07D0E076E080E086E9BEC50
:101010000EF0000E166E000E176E000E186E000E0B
:10102000196E23D0010E1626000E1722182219223F
:10103000195008E1F90E165C240E1758010E1858C5
:10104000D8A013D09B0E076E080E086E9BEC0EF016
:1010500014C007F015C008F09BEC0EF07D0E076E73
:10106000080E086E9BEC0EF0D4D7B60E0E6E010E75
:101070000F6EA30E106E080E116E18EC0EF00E50CF
:101080000F10D8B4CFD7B60E076E010E086E000E43
:101090000A6E000E096EB60E036E010E046E1AEC97
:1010A00010F003C00BF004C00CF069EC0BF0000E64
:1010B0000001A46F000EA36F8D0E076E080E086E60
:1010C0009BEC0EF0000E166E000E176E000E186EE2
:1010D000000E196E17D0010E1626000E17221822C8
:1010E0001922195008E1F90E165C240E1758010E4A
:1010F0001858D8A007D08D0E076E080E086E9BEC0E
:101100000EF0E0D7B60E0E6E010E0F6E570E106E7B
:10111000080E116E18EC0EF00E500F10D8B4DBD77D
:10112000B60E076E010E086E000E0A6E000E096EF6
:10113000B60E036E010E046E1AEC10F003C00BF035
:1011400004C00CF069EC0BF0000E0001A46F000E5F
:10115000A36F120020C038F021C039F022C03AF04D
:1011600023C03BF024C03CF025C03DF026C03EF03B
:1011700027C03FF03FAE02D0010E01D0000E366E08
:10118000376A36503710D8B410D03F1E3E1E3D1E71
:101190003C1E3B1E3A1E391E386C000E39223A2284
:1011A0003B223C223D223E223F220001A0AFA193E0
:1011B000A0BF05D0A05108E19F05D8B005D0000E12
:1011C000336E010E326E04D09FC032F0A0C033F0F7
:1011D0009DC034F09EC035F036503710D8A402D0F0
:1011E000A1A503D03406D8A03506000E416E1F0E0F
:1011F000406E000EC86F7CD04006D8A04106A90EF4
:101200004024D96E000E4120DA6E38C003F039C098
:1012100004F03AC005F03BC006F03CC007F03DC00A
:1012200008F03EC009F03FC00AF00A0E0B6E000E37
:101230000C6E000E0D6E000E0E6E000E0F6E000E88
:10124000106E000E116E000E126E98EC0CF003C0C2
:1012500028F004C029F005C02AF006C02BF007C012
:101260002CF008C02DF009C02EF00AC02FF028C0C5
:1012700015F02AC016F0E1EC10F01550300FDF6EBB
:101280003206D8A033063406D8A0350638C003F09D
:1012900039C004F03AC005F03BC006F03CC007F08E
:1012A0003DC008F03EC009F03FC00AF00A0E0B6EC8
:1012B000000E0C6E000E0D6E000E0E6E000E0F6E08
:1012C000000E106E000E116E000E126EC5EC0AF0CC
:1012D00003C038F004C039F005C03AF006C03BF056
:1012E00007C03CF008C03DF009C03EF00AC03FF026
:1012F00041BE20D0415003E14004D8A01BD038505B
:1013000039103A103B103C103D103E103F10D8A44D
:1013100073D733BE05D0335002E13204D8B06CD756
:1013200035BE08D0355003E13404D8A003D0000105
:10133000A1B362D736503710D8A403D00001A1A5BD
:1013400017D04006D8A0410636503710D8A404D094
:10135000000E316E2B0E03D0000E316E2D0E306E4E
:10136000A90E4024D96E000E4120DA6E30C0DFFF96
:101370001EC013F01FC014F0A90E4024156E000EFD
:101380004120166E34C017F035C018F0CBEC0DF0CC
:1013900013C01EF014C01FF0120044C0D9FF45C096
:1013A000DAFFDECFF6FFDDCFF7FF0800F550250AA4
:1013B000D8A4D1D044C0D9FF45C0DAFFDE2A000E40
:1013C000DD22000E00019E6F000E9D6F9DC0A1F0FA
:1013D0009EC0A2F09F69A06944C0D9FF45C0DAFF52
:1013E000DECFF6FFDDCFF7FF0800F550640AD8B472
:1013F0000DD044C0D9FF45C0DAFFDECFF6FFDDCF08
:10140000F7FF0800F550690AD8A43FD044C0D9FFBF
:1014100045C0DAFFDE2A000EDD2246C0D9FF47C0F4
:10142000DAFFDFCF48F0020EDE26DFCF49F0000EF4
:10143000DD2248C0D9FF49C0DAFFDECF4AF0DDCF58
:101440004BF0000E4BBEFF0E4C6E4D6E4E6E4F6E4F
:10145000506E516E42C01EF043C01FF04AC020F0D3
:101460004BC021F04CC022F04DC023F04EC024F000
:101470004FC025F050C026F051C027F0AAEC08F06C
:101480001EC042F01FC043F0120044C0D9FF45C047
:10149000DAFFDECFF6FFDDCFF7FF0800F550730A65
:1014A000D8A42AD044C0D9FF45C0DAFFDE2A000EF6
:1014B000DD2246C0D9FF47C0DAFFDFCF48F0020E79
:1014C000DE26DFCF49F0000EDD2248C0D9FF49C03B
:1014D000DAFFDECF52F0DDCF53F042C00CF043C054
:1014E0000DF052C00EF053C00FF002EC0CF00CC027
:1014F00042F00DC043F0120044C0D9FF45C0DAFFEE
:10150000DECFF6FFDDCFF7FF0800F550250AD8A49F
:1015100016D044C0D9FF45C0DAFFDE2A000EDD2216
:10152000000E046E250E036E42C005F043C006F0A7
:101530007BEC0DF0000E436E010E426E120044C0B3
:10154000D9FF45C0DAFFDE2A000EDD22000E436E11
:10155000000E426E120044C0D9FF45C0DAFFDECF54
:10156000F6FFDDCFF7FF0800F550036E046A42C0B6
:1015700005F043C006F07BEC0DF044C0D9FF45C038
:10158000DAFFDE2A000EDD22D5D7000E146E12AE71
:1015900012D0121E111E101E0F1E0E1E0D1E0C1E2E
:1015A0000B6C000E0C220D220E220F221022112293
:1015B0001222010E146E0AAE12D00A1E091E081E57
:1015C000071E061E051E041E036C000E04220522C3
:1015D00006220722082209220A22010E141A20EEEE
:1015E00015F0070EDE6AE806FDE20B500C100D1038
:1015F0000E100F10101011101210D8B446D0010E9A
:10160000136E0AD0D8900B360C360D360E360F36C8
:10161000103611361236132A12AEF4D7D89015367A
:1016200016361736183619361A361B361C360B5036
:10163000035C0C5004580D5005580E5006580F50BE
:101640000758105008581150095812500A58D8A07D
:1016500011D00B50035E0C50045A0D50055A0E5019
:10166000065A0F50075A1050085A1150095A125072
:101670000A5A1580D8901232113210320F320E32BF
:101680000D320C320B32132EC9D71450D8B410D0EF
:101690001C1E1B1E1A1E191E181E171E161E156C48
:1016A000000E16221722182219221A221B221C228F
:1016B00015C003F016C004F017C005F018C006F0FE
:1016C00019C007F01AC008F01BC009F01CC00AF0CE
:1016D000120007C011F008C012F00B500C10D8B463
:1016E000120011C0D9FF12C0DAFF09C0DFFF0B5092
:1016F00011240D6E0C5012200E6EFF0E0D24D96EAB
:10170000FF0E0E20DA6E09C0DFFF0C5004E1030E5D
:101710000B5CD8A0120020EE01F01150D926125017
:10172000DA2209C0DFFF20EE02F01150D926125054
:10173000DA2209C0DFFF0B5011240D6E0C5012206D
:101740000E6EFE0E0D24D96EFF0E0E20DA6E09C04D
:10175000DFFF0B5011240D6E0C5012200E6EFD0E8B
:101760000D24D96EFF0E0E20DA6E09C0DFFF0C507B
:1017700004E1070E0B5CD8A0120020EE03F011501C
:10178000D9261250DA2209C0DFFF0B5011240D6E4A
:101790000C5012200E6EFC0E0D24D96EFF0E0E2082
:1017A000DA6E09C0DFFF0C5004E1090E0B5CD8A013
:1017B000120011C00DF012C00EF00D1E0E1E0D4ACB
:1017C0000E2A030E0D140F6E106A0F5011261050C2
:1017D00012220F500B5E10500C5AFC0E0B16FF0E0F
:1017E0000C160BD011C0D9FF12C0DAFF09C0DFFF01
:1017F0000B06D8A00C06114A122A0B500C10D8B4B4
:101800001200F0D720EE60F010EE11F0060EDBCFE4
:10181000E3FFE806FCE20EC01CF00FC01DF01C50F8
:101820001D10D8A404D0110E1C6E000E1D6E1CC01D
:1018300003F01DC004F01AEC10F003C020F004C047
:1018400021F09FC01EF0A0C01FF01FBE0ED0205080
:101850001E5C1F50800A106E2150800A1058D8B0AC
:1018600004D01EC020F01FC021F020C01EF021C0F7
:101870001FF09DC01AF09EC01BF00001A1A10DD069
:1018800016D0000E046E200E036E0CC005F00DC0C5
:1018900006F07BEC0DF0204A212A1A50205C2150E2
:1018A000800A106E1B50800A1058D8A0EAD7000E8C
:1018B000196E000E186E13D01CC0D9FF1DC0DAFFC0
:1018C000DF50106E1050036E046A0CC005F00DC09E
:1018D00006F07BEC0DF01C4A1D2A184A192A1E50EE
:1018E000185C1950800A106E1F50800A1058D8A03A
:1018F000E3D70001A1B10DD016D0000E046E200E6A
:10190000036E0CC005F00DC006F07BEC0DF0204A14
:10191000212A1A50205C2150800A106E1B50800A28
:101920001058D8A0EAD720C00CF021C00DF012004A
:10193000000E146E0AAE12D00A1E091E081E071EE3
:10194000061E051E041E036C000E0422052206223C
:101950000722082209220A22010E146E12AE10D0AC
:10196000121E111E101E0F1E0E1E0D1E0C1E0B6CC5
:10197000000E0C220D220E220F2210221122122202
:101980000B500C100D100E100F1010101110121023
:10199000D8B43CD0010E136E0AD0D8900B360C365A
:1019A0000D360E360F36103611361236132A12AE99
:1019B000F4D70B50035C0C5004580D5005580E50D2
:1019C00006580F5007581050085811500958125017
:1019D0000A58D8A010D00B50035E0C50045A0D507A
:1019E000055A0E50065A0F50075A1050085A1150F7
:1019F000095A12500A5AD8901232113210320F324C
:101A00000E320D320C320B32132ED3D71450D8B401
:101A100010D00A1E091E081E071E061E051E041EE3
:101A2000036C000E04220522062207220822092246
:101A30000A2203C003F004C004F005C005F006C08C
:101A400006F007C007F008C008F009C009F00AC096
:101A50000AF0120003C00AF004C00BF005C00CF03D
:101A600006C00DF00706D8A0080607280FE10828D1
:101A7000D8A40CD0000E046E000E036E12000A4AA9
:101A80000B2A0C4A0D2A0706D8A008060AC0D9FF5F
:101A90000BC0DAFFDF50D8B41CD00CC0F6FF0DC06D
:101AA000F7FF0800F5500009D8B413D0075008100C
:101AB000D8B40FD00AC0D9FF0BC0DAFFDF50096ECF
:101AC0000CC0F6FF0DC0F7FF0800F5500918D8B498
:101AD000D6D70AC0D9FF0BC0DAFFDF50096E0CC0A1
:101AE000F6FF0DC0F7FF0800F550095C036E046AAD
:101AF000D8A00406120005500610D8B404D0055032
:101B00000610D8A404D0035084EC11F0120020EE8B
:101B100004F00550D9260650DA22DE50DE10D8B483
:101B200016D020EE04F00550D9260650DA2210EE29
:101B300002F00550E1260650E222DE50E65CE65057
:101B4000800A0B6EDE50800A0B58D8B0120020EECF
:101B500002F00550D9260650DA22DECF07F0DDCF9D
:101B600008F005C0D9FF06C0DAFFDECF09F0DDCFEF
:101B70000AF007500924D96E08500A20DA6E03C013
:101B8000DFFF20EE02F00550D9260650DA22DE2AC9
:101B9000000EDD2212000001A1A10AD015C00CF038
:101BA00016C00DF013C00EF014C00FF077EC10F05B
:101BB00018BE05D017C01CF018C01DF004D0000ED0
:101BC0001D6E000E1C6E000E1B6E000E1A6E0CD0E9
:101BD000000E046E200E036E13C005F014C006F054
:101BE0007BEC0DF01A4A1B2A1C501A5C1B50800A11
:101BF000196E1D50800A1958D8A0EAD70001A1B16A
:101C00000AD015C00CF016C00DF013C00EF014C0B1
:101C10000FF077EC10F015C003F016C004F01AECCA
:101C200010F01C500324136E1D500420146E12007B
:101C300010501110D8B441D010C003F011C004F0FE
:101C40001AEC10F003C012F004C013F02BD00EC039
:101C500003F00FC004F010C005F011C006F012C070
:101C600007F013C008F02AEC0DF003500410D8A4BC
:101C700005D00EC00EF00FC00FF01200010E0E24A2
:101C8000036E000E0F20046E10C0F6FF11C0F7FFA8
:101C90000800F550056E066A93EC10F003C00EF0D4
:101CA00004C00FF00E500F10D8B407D00EC0D9FFEB
:101CB0000FC0DAFFDF50D8A4CAD7000E0E6E000E98
:101CC0000F6E120081B8FED70C0E78EC11F05B504D
:101CD000D8B4FDD7000E5B6E82EC11F00F6EFF0ED4
:101CE00078EC11F05B50D8B4FDD7000E5B6E82EC3F
:101CF00011F0116EFF0E78EC11F05B50D8B4FDD7E7
:101D0000000E5B6E82EC11F0126EFF0E78EC11F09B
:101D10005B50D8B4FDD7000E5B6E82EC11F0106EF4
:101D2000898A12C003F01150CFEC0EF003C00DF001
:101D300004C00EF0120007C003F008C004F01AEC53
:101D400010F003C00DF004C00EF0000E0C6E000E7B
:101D50000B6E1AD00B500724096E0C5008200A6E27
:101D600009C0F6FF0AC0F7FFF86A070EF76403D050
:101D70000800F55005D0F6CFE1FFF7CFE2FFE750BE
:101D800072EC11F00B4A0C2A0D500B5C0C50800ABF
:101D9000096E0E50800A0958D8B01200DBD7086EC1
:101DA0000850800B096E000E0A6E0950D8B405D099
:101DB000010E0A6E08507F0B086E0850056E066A09
:101DC000053A063AF00E061605500F0B0612F00EF5
:101DD000051603C007F0073A0F0E07160750051047
:101DE0000B6E06500C6E0A50D8B406D0000E0B24B1
:101DF0000B6EF80E0C200C6E0BC003F00CC004F040
:101E00001200000E0B6E000E0C6E000E0D6E000E1A
:101E10000E6E03A008D007500B2608500C22095064
:101E20000D220A500E22D8900736083609360A3697
:101E3000D8900632053204320332035004100510E4
:101E40000610D8A4E6D70BC003F00CC004F00DC0F8
:101E500005F00EC006F0120056C0C9F057C0CAF017
:101E6000000E00019C6F000E9B6F13D054C042F017
:101E700055C043F0C90E446E000E456E58C046F082
:101E800059C047F0CDEC09F0425000019B27435068
:101E90009C23C9C0F6FFCAC0F7FF0800F55000092F
:101EA000D8A4E4D79BC054F09CC055F01200B40EE7
:101EB000F66E200EF76E000EF86E00EE60F010EE7B
:101EC00039F00900F5CFEEFFE550E150FAE101EEFF
:101ED000B6F011EEF4F0EE6AE550E150FCE1E250AC
:101EE000FAE100EE99F0300EEE6AE806FDE15C6A78
:101EF0005B6A5D905D92000EF86E0001A9EF0FF035
:101F0000CF0E0001D56F000ED66FCBC0D7F0CCC07E
:101F1000D8F0000EDA6F000ED96F000EDC6F000EE5
:101F2000DB6FD70E546E000E556ECDC056F0CEC08E
:101F300057F0D50E586E000E596E2CEC0FF00001C4
:101F4000D951CB25D96EDA51CC21DA6E000EDF6E75
:101F50001200000E0001E16F000E82B0010EE26F70
:101F60007DEC11F0FAEC10F057EC11F0820E5A6E85
:101F7000DE0EE82EFED75A2EFCD7010E0001A76F09
:101F8000929293969398939A9480710E076E080E8E
:101F9000086E9BEC0EF0DBEC05F00001DD51E16F0B
:101FA000FAD79F0E0B6EFF0E0C6E09C00DF00AC023
:101FB0000EF00B500D260C500E220E5006E11A0E9C
:101FC0000D5CD8B002D0010E01D0000E0F6E106A69
:101FD0000F501010D8B405D05F0E0914096E0A6AAC
:101FE000120009C009F00AC00AF01200810E78EC54
:101FF00011F05B50D8B4FDD7000E5B6E430E78EC49
:1020000011F05B50D8B4FDD7000E5B6E898A800E4C
:1020100078EC11F05B50D8B4FDD7000E5B6E410E2A
:1020200078EC11F05B50D8B4FDD7000E5B6E898A56
:10203000010E120003C005F004C006F002D0034AEE
:10204000042A03C0F6FF04C0F7FFF86A070EF7641E
:1020500003D00800F55005D0F6CFE1FFF7CFE2FF3F
:10206000E7500009D8A4EBD70550035C036E065077
:102070000458046E1200010E096E200E031804109D
:10208000D8B414D0F70E056EFF0E066E03C007F02D
:1020900004C008F00550072606500822085004E145
:1020A000050E075CD8A002D0000E096E09C003F02F
:1020B000046A1200286E756C6C290053454E534F0C
:1020C00052000000000000000000000000000000BE
:1020D0000000000000000000000000000000000000
:0D20E00000000000000000000000000000F3
:1020EE00000E126E000E116E0BD010C003F0046ABB
:1020FE000EC005F00FC006F07BEC0DF0114A122A4F
:10210E0011500C24D96E12500D20DA6EDF50106E65
:10211E001050D8B41200E9D703C0D9FF04C0DAFFBB
:10212E000550DE18D8A405D003C003F004C004F097
:10213E00120003C0D9FF04C0DAFF034A042ADF509D
:10214E00D8A4EAD7000E036E000E046E12009F0E86
:10215E00056EFF0E066E200E0310076E000E0410A5
:10216E00086E0550072606500822085006E11A0E82
:10217E00075CD8B002D0010E01D0000E036E046AC7
:10218E00120035C011F036C012F037C013F038C04F
:10219E0014F039C015F03AC016F0010E176E56EC59
:1021AE0004F011C035F012C036F013C037F014C071
:1021BE0038F0120016BE05D0165010E11504D8B036
:1021CE000DD015C017F016C018F0171E181E174A9E
:1021DE00182A17C015F018C016F0120015C015F009
:1021EE0016C016F01200929A93809392939693884B
:1021FE000F015B9B240E5C6F898AF29E7F9CD08EB2
:10220E009F869D86C698C650F00B0209C66E9E9696
:10221E00C68AF28E12009F0E056EFF0E066E03C06A
:10222E0007F004C008F00550072606500822085093
:10223E0006E11A0E075CD8B002D0010E01D0000ED6
:10224E00036E046A1200D00E056EFF0E066E03C0FA
:10225E0007F004C008F00550072606500822085063
:10226E0006E10A0E075CD8B002D0010E01D0000EB6
:10227E00036E046A1200000E896E000E8A6E000E46
:10228E008B6E92689368C70E946E000E0F015D6F91
:10229E00000E5C6F000E5B6F000E856EF18E1200ED
:1022AE00AC98AB8EAC84B886220EAF6E948C948EA6
:1022BE00F29ED08E9D8A9F8AAB889E9A9E98AC8AFB
:1022CE00F28E1200700ED36E900ED26E800E9B6E3A
:1022DE00000EB56E1200036EACA2FED703C0ADFFAA
:1022EE001200036E899A03C0C9FF120042EC11F06E
:0C22FE0069EC11F01200C950120012002F
:020000040020DA
:08000000FFFFFFFFFFFFFFFF00
:020000040030CA
:0E00000013285F3CFFD185FF0FC00FE00F40BB
:00000001FF
