:020000040000FA
:0400000029EF00F0F4
:100008004D82D9CF33F0DACF34F0F2A004D0010E0C
:10001800116EF286F2909EA603D0010E106E9E9687
:100028009EAA0DD00F50D8A48982920E0B24D96EA7
:10003800000E0C20DA6EAECFDFFF0B4A0C2A34C05C
:0E004800DAFF33C0D9FF4D921100B1EF04F082
:10080000006368616E67654E616D653A6E616D6526
:1008100041434B0D006368616E676549443A256446
:100820003A494441434B0D0047656E6572616C2047
:100830004B656E6F62690A0025643A54454D50411C
:10084000434B3A25690D006368616E67654E616DC3
:10085000653A0068656C6C6F207468657265004469
:100860004953434F4E4E454354006368616E67657C
:1008700049443A005265626F6F74696E670067653C
:100880007454656D700053746172740A0053532C74
:1008900043300D00522C310D0025732564002424B3
:0F08A0002400532D2C00434D4400414F4B0000CA
:1008B000000E446E000E82B0010E4C6EDCEC05F0B2
:1008C000B9EC05F07AEC05F0A7EC05F0820E416E6C
:1008D000DE0EE82EFED7412EFCD7010E0F6E92924F
:1008E00093969398939A9480860E396E080E3A6E7A
:1008F000E8EC04F01CEC05F0446E030ED7EC05F0B8
:100900001050D8B4FDD7000E106EE5EC05F0030EC4
:10091000D7EC05F01050D8B4FDD7000E106EE5EC02
:1009200005F01150D8B408D0B9EC05F07AEC05F018
:10093000A7EC05F0000E116E030ED7EC05F0105079
:10094000D8B4FDD7000E106EE5EC05F0030ED7EC21
:1009500005F01050D8B4FDD7000E106EE5EC05F090
:10096000E0D7C20EF66E0A0EF76E000EF86E00EEBD
:1009700060F010EE32F00900F5CFEEFFE550E150E7
:10098000FAE1C20EF66E0B0EF76E000EF86E00EE78
:1009900045F010EE07F00900F5CFEEFFE550E1500D
:1009A000FAE100EE92F011EEF4F0EE6AE550E1505B
:1009B000FCE1E250FAE100EE01F0320EEE6AE806E8
:1009C000FDE14D904D92000EF86E000158EF04F0DD
:1009D00039C035F03AC036F040EC05F035C03FF094
:1009E00036C040F0000E3E6E000E3D6E1AD03D50F7
:1009F00039243B6E3E503A203C6E3BC0F6FF3CC073
:100A0000F7FFF86A070EF76403D00800F55005D029
:100A1000F6CFE9FFF7CFEAFFEF50D1EC05F03D4A02
:100A20003E2A3F503D5C3E50800A3B6E4050800A5B
:100A30003B58D8B01200DBD7810ED7EC05F0105030
:100A4000D8B4FDD7000E106E430ED7EC05F0105051
:100A5000D8B4FDD7000E106E898A800ED7EC05F051
:100A60001050D8B4FDD7000E106E410ED7EC05F033
:100A70001050D8B4FDD7000E106E898A010E1200F6
:100A800035C037F036C038F002D0354A362A35C086
:100A9000F6FF36C0F7FFF86A070EF76403D00800C8
:100AA000F55005D0F6CFE9FFF7CFEAFFEF50000988
:100AB000D8A4EBD73750355C356E38503658366E83
:100AC000120053454E534F5200000000000000003A
:100AD0000000000000000000000000000000000016
:100AE0000000000000000000000000000000000006
:100AF00000000000929A93809392939693880F013E
:100B00005B9B240E5C6F898AF29E7F9CD08E9F86B1
:100B10009D86C698C650F00B0209C66E9E96C68A80
:100B2000F28E1200000E896E000E8A6E000E8B6E21
:100B300092689368C70E946E000E0F015D6F000EF1
:100B40005C6F000E5B6F000E856EF18E1200AC982C
:100B5000AB8EAC84B886220EAF6E948C948EF29ECF
:100B6000D08E9D8A9F8AAB889E9A9E98AC8AF28E80
:100B70001200010E0F015A6F7E8A7E887E847E826B
:100B80007E807F8A7F887F867F847F827F8012003D
:100B9000700ED36E900ED26E800E9B6E000EB56EF0
:100BA0001200356EACA2FED735C0ADFF1200356E17
:100BB000899A35C0C9FF120092EC05F0C8EC05F027
:090BC0001200286E756C6C29000E
:040BCA00C9501200FC
:020000040020DA
:08000000FFFFFFFFFFFFFFFF00
:020000040030CA
:0E00000013285F3CFFD185FF0FC00FE00F40BB
:00000001FF
